:100000000C9450000C945C000C945C000C945C000C
:100010000C945C000C945C000C945C000C945C00F0
:100020000C945C000C945C000C945C000C945C00E0
:100030000C945C000C945C000C945C000C945C00D0
:100040000C945C000C945C000C945C000C945C00C0
:100050000C945C000C945C000C945C000C945C00B0
:100060000C945C000C945C000C945C000C945C00A0
:100070000C945C000C945C000C945C000C945C0090
:100080000C945C000C945C000C945C000C945C0080
:100090000C945C000C945C000C945C000C945C0070
:1000A00011241FBECFEFCDBFDFE3DEBF0E945E0095
:0800B0000C945A00F894FFCFF4
:0400B8000C940000A4
:0200BC00FFCF74
:00000001FF
